:200C0000060C1E0CFF3FB24040A52C01B29055AADEFFFF27314020020B43C043FAF532C24B
:200C2000F2C032000000B240805A2001F24088005700F24080005600E2D32100E2D322001D
:200C4000E2C32600E2C22A00E2C22E00B24000A528013BC07A00B012860E82431202094379
:200C600036400A023742B012540FC64C000016531783F9232BB3262055420B027590120044
:200C80007924759010005424B012580E55420B02759018002E242BB215247590200015247B
:200CA00075901600222475901400A12475901A00182475901C002F24053C2BD2B012E60E32
:200CC000C53F2153B012EC0EC13FB012E60ED2420E025600D2420F025700D24210021602F6
:200CE000B53FB012E60E10420E0216420E021543073C3640FEFFB24006A5100235400C0042
:200D0000924210022801B643000092B32C01FD231583F623D33F16420E021742100235432B
:200D2000759603201783FC23C93F82460002CA3F3640E0FF374020002BC2B012540F7C96E1
:200D400003243BD04000023C003C003C1783F523B012580E3BB04000B0278293DEFF072472
:200D600031400010041231902202FC23C23FB012EC0E6C3F16420E02174210022BB230246C
:200D80003BD01000B012540F2BB32C2036900010062C36900001062CC64C00001B3CB2408D
:200DA00040A5280116B30320C24C1402133CC24C1502869AFDFF01242BD33690010204286D
:200DC0003BD23BB0100002243BC032001A421402864AFFFF16531783D523B012580E6E3FA8
:200DE000B012540F1783FC23B012580E6B3FB24080000A02D24210020C02D24210020D025C
:200E000082431202094336400A0227427C46B012F00E1783FB2316420E02174210023690EF
:200E200000010A28B24614025C421402B012F00E17835C421502013C7C46B012F00E178355
:200E4000EE23B2E312025C421202B012F00E5C421302B012F00EFA3E18421202B012540F28
:200E6000C24C1202B012540FC24C130238E33BB20424869AFEFF01242BD318921202212396
:200E80002BB31F233041E2B22800FD27E2B22800FD23B24024026001E2B22800FD27154255
:200EA000700105110511051182450202051182450402B2801E000402574216023780030010
:200EC000051105111753FD23355040A582452A013542B24024026001929270010202FC2F4C
:200EE0001583F72309437C409000023C7C40A0004D43C9EC120219E31BC3454D5545020F9E
:200F000000550C2E2E2E2E2E2E2E2E1A3434924270017201B2500C007201073C1BB30B2009
:200F20008243620192B36201FD27E2C321000A3C4C11F62B1BE38243620192B36201FD2741
:200F4000E2D321009252020272015D537D900C00D42330414E431BC3454E5545600F0055CF
:200F60000C5656565656565656367400E2B22800FD23924270017201925204027201824355
:200F8000620192B36201FD27E2B228001E282BD31C3C4C101A3C8243620192B36201FD2724
:200FA000E2B2280001281BE31BB301242BD3C9EC120219E30A3C8243620192B36201FD275E
:200FC000E2B22800E62B4C101BE39252020272015E53C23F8243620192B36201FD27E2B255
:200FE0002800012C2BD33041FFFFFFFFFFFFFFFFF227604000000000000002020104916181
:00000001FF
